:020000040800F2
:10000000A0110020A10100081318000879170008AA
:100010001118000829090008A91B000800000000A9
:100020000000000000000000000000001918000897
:100030002B09000800000000151800081B18000814
:10004000BB010008BB010008BB010008BB010008A0
:10005000BB01000817180008BB010008BB0100081D
:10006000BB010008BB010008BB010008BB01000880
:10007000BB010008BB010008BB010008BB01000870
:10008000BB010008BB010008BB010008BB01000860
:10009000BB010008BB010008BB010008BB01000850
:1000A000BB010008BB010008BB010008BB01000840
:1000B000BB010008BB010008BB010008BB01000830
:1000C000BB010008BB010008BB010008BB01000820
:1000D000BB0100089D1B0008BB010008BB01000814
:1000E000BB010008BB010008BB010008BB01000800
:1000F000BB010008BB010008BB010008BB010008F0
:10010000BB010008BB010008BB010008BB010008DF
:10011000BB010008BB010008BB010008BB010008CF
:10012000BB010008BB010008BB010008BB010008BF
:10013000BB010008BB010008BB010008BB010008AF
:10014000BB010008BB010008BB010008BB0100089F
:10015000BB010008BB010008BB010008BB0100088F
:10016000BB010008BB010008BB010008BB0100087F
:10017000BB010008BB010008BB0100080000000033
:10018000BB010008BB010008DFF810D000F04AFBFB
:10019000004800477D540008AFF30080A011002004
:1001A0000648804706480047FEE7FEE7FEE7FEE711
:1001B000FEE7FEE7FEE7FEE7FEE7FEE7B118000810
:1001C000890100082DE9F05F0546002092469B4614
:1001D00088460646814640241BE02846414647465D
:1001E000224600F070FA53465A46C01A914110D385
:1001F00011461846224600F057FA2D1A67EB0108FF
:100200004F4622460120002100F04EFA17EB00096C
:100210004E41201EA4F10104DFDC484631462A4647
:100220004346BDE8F09F40EA01039B0703D009E085
:1002300008C9121F08C0042AFAD203E011F8013BD2
:1002400000F8013B521EF9D27047D2B201E000F82B
:10025000012B491EFBD270470022F6E710B513466A
:100260000A4604461946FFF7F0FF204610BD421E1D
:1002700012F8013F002BFBD111F8013B02F8013BC2
:10028000002BF9D17047421C10F8011B0029FBD14B
:10029000801A704710B5044600E0401C0378002B1C
:1002A000FBD100E0401C521E04D311F8013B037047
:1002B000002BF7D100210170204610BD034611F834
:1002C000012B00F8012B002AF9D1184670472DE9BF
:1002D000FE4F804681EA0300C00F0C46009021F0DB
:1002E000004123F00045B8EB0200A94105D2404689
:1002F000214690461C460B46024623F00040104320
:1003000047D0270DC7F30A00C3F30A510290401AE1
:10031000019040286BDAC3F3130040F4801B00986F
:10032000924620B10023D2EB030A63EB0B0B01983A
:100330005946C0F14002504600F0B6F906460D4657
:1003400050465946019A00F0CEF910EB0800614181
:10035000002487EA115284EAE7731A4340D0009AD6
:1003600062B3019A012A4FEA075215DC001B61EBC8
:1003700002014FF0004202EA0752CDE90042001CA0
:1003800041F5801132462B4600F0CEF903B0BDE8AE
:10039000F08F40462146F9E7001B61EB0201001C8B
:1003A00041F5801300185B412018A2F5001747EBB8
:1003B000030140EAD570B6196D4111E06D084FEAAE
:1003C000360645EAC0754FEA0752001B61EB020191
:1003D000001C41F5801149084FEA300000195141D5
:1003E00032462B4603B0BDE8F04F00F08EB90098BE
:1003F000012240000023D0EB020263EBE07300987F
:1004000021464FEAE074B8EB000061EB0401E9E734
:1004100083F000435BE781F0004158E72DE9FE4F90
:1004200081EA030404F0004421F0004100944FF0FD
:10043000000B23F0004350EA01045ED052EA0304AB
:100440005BD0C3F30A54C1F30A552C44A4F2F3342D
:100450000194A0FB0254C1F3130141F48011C3F3D2
:10046000130343F4801301FB024400FB034E840A90
:10047000970A44EA815447EA8357A4FB0768029528
:100480008D0A05FB07854FEA932C04FB0C542705C6
:10049000029D4FEA065847EA1637B5EB08056EEBA2
:1004A000070C870E920E47EA811742EA8312A7FBD8
:1004B0000201B6EB0B0164EB00042B0D43EA0C3395
:1004C0005E1844EB1C50DA465146E7FB0201C5F3C7
:1004D00013044FEA0B3343EA14534FEA0432019CEE
:1004E00043EA0603A4F10C040294009CCDE900B495
:1004F00000F01AF903B0BDE8F08F00200146F9E7DB
:100500002DE9F04D81EA030404F0004B21F0004591
:1005100014464FF0000A23F0004150EA050220D0B3
:1005200054EA01021DD0C5F30A570246C5F313036E
:10053000C1F31300C1F30A5640F4801543F480134D
:10054000A7EB0608101BD64608F2FD3873EB050032
:1005500002D308F1010801E092185B41B8F1000FE5
:1005600003DA00200146BDE8F08D00204FF4801131
:10057000064684460EE0171B73EB050705D3121BD6
:1005800063EB050306434CEA010C49084FEA3000CF
:1005900092185B4150EA0107EDD152EA030012D0F4
:1005A00082EA040083EA0501084305D0101BAB4131
:1005B00006D20122002306E000224FF0004302E0B1
:1005C0006FF0010253101AEB06004CEB085110EBD0
:1005D0000A0041EB0B01BDE8F04D00F096B80EB5F6
:1005E000C10F80EAE0700844CA07002140F233439B
:1005F0008DE80E000A460B4600F096F803B000BDE9
:100600000EB540F2334102910021CDE900110A46B6
:100610000B4600F089F803B000BD000030B5041EA1
:1006200071F1000404DB4FF00044404264EB01012F
:10063000141E73F1000405DB1C464FF000435242C8
:1006400063EB04038B4208BF824230BD30B5041E09
:1006500071F1000404DB4FF00044404264EB0101FF
:10066000141E73F1000405DB1C464FF00043524298
:1006700063EB0403994208BF904230BD30B50B468E
:10068000014600202022012409E021FA02F59D42C2
:1006900005D303FA02F5491B04FA02F52844151E96
:1006A000A2F10102F1DC30BD202A04DB203A00FA7D
:1006B00002F1002070479140C2F1200320FA03F3B9
:1006C000194390407047202A04DB203A21FA02F0B7
:1006D0000021704721FA02F3D040C2F1200291407C
:1006E000084319467047202A06DBCB17203A41FA07
:1006F00002F043EAE07306E041FA02F3D040C2F1AF
:100700002002914008431946704710B5141E73F13A
:10071000000408DA401C41F1000192185B411A43C1
:1007200001D120F0010010BD2DE9F04D92469B460D
:1007300011B1B1FA81F202E0B0FA80F220329046B3
:10074000FFF7B2FF04460F4640EA0A0041EA0B01F8
:1007500053465A46084313D0114653EA010019D0B4
:10076000C8F140025046FFF7AEFF05460E46504620
:1007700059464246FFF798FF084305D0012004E0A0
:1007800020463946BDE8F08D0020054346EAE07674
:100790002C4337430A986305E40AA0EB08000022C3
:1007A000FD0A44EA47540A3002D500200146E9E731
:1007B000010510196941DDE9084500196941BDE8E5
:1007C000F04DA2E770B521F0004303430CD0C1F314
:1007D0000A550024D5EB040564EB0403D617AD1AC3
:1007E000B34102DB0020014670BD201841EB0251ED
:1007F00070BDC1F30A52C1F3130140F2FF3341F45B
:1008000080119A4202DA00200146704740F23343D9
:100810009A42A2F2334202DC5242FFF754BFFFF782
:1008200043BF0000064C074D06E0E06840F00103BE
:1008300094E8070098471034AC42F6D3FFF7A8FCC1
:10084000B85F0008D85F00082DE9F04D00231A4674
:100850001B1A8A4103DB00200146BDE8F08DC1F37D
:100860000A52C1F3130141F480154FF0000BD10778
:1008700002D100186D41521E0027044640F2FF11BC
:10088000384601EB620A3E468046024600204FF49D
:100890008011FFF718FFC2197141BB1846EB010028
:1008A000B4EB030C75EB000C04D3E41A65EB000504
:1008B00017460E46241908F101006D418046342880
:1008C000E3DDF91946EB0600091BA84103D24FF0FE
:1008D000FF32134601E0002213461BEB070046EBF4
:1008E0000A51BDE8F04DFFF710BF70B5C1F30A52D1
:1008F00001F000450024C1F3130140F2FF3341F43D
:1009000080119A4201DA002070BD40F233439A42CE
:10091000A2F2334203DC5242FFF7D5FE00E09040E2
:100920002C43F1D0404270BDFEE7704772B6FEE73F
:100930002DE9F0410446876D00F054F9064694F81D
:1009400035000025022806D08020606584F83450E8
:100950000120BDE8F0812068016821F016010160E6
:100960002068416921F080014161206C08B9A06CC8
:1009700020B12068016821F0080101602068016849
:1009800021F0010101600CE000F02CF9801B05282A
:1009900007D920206065032084F8350084F834509E
:1009A000D7E720680068C007EED194F85C103F20BC
:1009B0008840B860012084F8350084F83450002065
:1009C000C7E790F83510022903D080214165012046
:1009D0007047052180F835100068016821F0010199
:1009E00001600020704700002DE9F84FDFF8BCA13E
:1009F000002201250AF1040B03264FF00F090BF129
:100A0000040E00BF0B6805FA02F42340A34270D124
:100A10000F7907F00307012F01D0022F16D1876845
:100A20004FEA420806FA08FC27EA0C07D1F80CC086
:100A30000CFA08FC4CEA070CC0F808C04768A7434A
:100A40000C79C4F3001494403C4344600C79E443B3
:100A5000A4070AD0C4684FEA420C06FA0CF7BC435C
:100A60008F6807FA0CF72743C7600C7904F003047A
:100A7000022C12D1D40800EB840CDCF8204057077C
:100A8000FF0E09FA07F824EA0804D1F8108008FAE2
:100A900007F848EA0408CCF8208004684FEA420CC2
:100AA00006FA0CF7BC430F7907F0030707FA0CF7B7
:100AB000274307604C6814F4403F70D03C4C2768D3
:100AC00047F480472760246822F0030704F4804439
:100AD0000094384C07EB040CDCF8084897074FEA01
:100AE000177809FA08F7BC43334FB84202D1002700
:100AF00024E054E0314FB84201D101271EE0304FCD
:100B0000B84201D1022719E02E4FB84201D1032784
:100B100014E02D4FB84201D104270FE02B4FB8420B
:100B200001D105270AE02A4FB84201D1062705E086
:100B3000284FB84201D1072700E0082707FA08F735
:100B40002743CCF80878DAF800405746D1F804C0BB
:100B50009C435FEACC3C00D51C433C60DBF8004082
:100B60005F46D1F804C09C435FEA8C3C00D51C432F
:100B70003C60DEF800407746D1F804C09C435FEA51
:100B8000CC2C00D51C433C60084F0C373C68D1F896
:100B900004C09C435FEA8C2C00D51C433C60521C73
:100BA000102AFFF42FAFBDE8F88F0000003C014091
:100BB000443802400030014000000240000402407E
:100BC00000080240000C02400010024000140240E5
:100BD00000180240001C02400AB1816170470904FC
:100BE000FBE7000001488068704700000800002013
:100BF0000248816802781144816070470800002033
:100C00000B4810B5016841F400710160016841F4BE
:100C100080610160016841F480710160032000F08F
:100C200077F80F2000F006F800F024F8002010BD3F
:100C3000003C024070B50D4D04464FF47A7128789F
:100C4000B1FBF0F00A490968B1FBF0F000F014FBC9
:100C500048B9102C07D200222146501E00F038F867
:100C600000206C6070BD012070BD000008000020F5
:100C7000140000200E4808B5016841F4804101606D
:100C8000006800F4804000900948001F016841F0AE
:100C9000805101600068002200F0805000901146F1
:100CA000052000F015F8BDE80840052000F002B866
:100CB00044380240002809DB00F01F020121914066
:100CC0004009800000F1E020C0F8001170470000EA
:100CD000F0B40E4B1B680C46C3F30223C3F10705A7
:100CE000042D00D90425191D072901D2002300E095
:100CF000DB1E012606FA05F1491E214099409E405F
:100D0000761E16403143F0BC00F08CBF0CED00E0C5
:100D1000064900F0070208684FF6FF03184040EA52
:100D20000220034A10430860704700000CED00E009
:100D30000000FA052DE9F0470E46050065D0DFF802
:100D40001481D8F80000F7B200F00700B04207D2D3
:100D500088F80070D8F8000000F00700B04254D1C5
:100D600028683D4C810712D5400703D5206840F420
:100D7000E05020602878000703D5206840F46040E8
:100D800020602068A96820F0F000084320602878DF
:100D9000C0072DD0304968680839012812D00228D0
:100DA00013D0032811D00968890700292DDA21689A
:100DB00021F0030101432160FFF714FF814641F256
:100DC000883A0EE009688903EFE709688901ECE7D2
:100DD000FFF708FFA0EB0901514502D90320BDE848
:100DE000F0872068696800F00C00B0EB810FEFD14C
:100DF000D8F80010404601F00701B14207D907704A
:100E0000006800F00700B04201D00120E7E7287831
:100E1000400705D52068E96820F4E05008432060C9
:100E20002878000706D52068296920F4604040EA48
:100E3000C100206000F038F82168084AC1F30311AE
:100E4000515CC8400649086006480068FFF7F2FE9A
:100E50000020C4E7003C024008380240205C000843
:100E6000140000200C0000200448054900680968AF
:100E7000044AC1F38221515CC8407047140000202D
:100E800008380240305C00080448054900680968D9
:100E9000044AC1F34231515CC8407047140000203D
:100EA00008380240305C0008154810B5006810F0A2
:100EB0000C02144813D01449042A0FD0082A0ED16A
:100EC0000F4C241F2268236802F03F025B0207D503
:100ED0002068C0F38810A0FB010106E0084610BDA1
:100EE0002168C1F38811A1FB00010023FFF76AF913
:100EF0002168C1F30141491C4900B0FBF1F010BD6C
:100F0000083802400024F40040787D012DE9F84FB4
:100F100004006ED02078DFF84C93C007A9F10405D7
:100F20004AD009F104000168C1F38101012908D008
:100F30000068C0F3810002280AD1D9F800004002FD
:100F400006D52868800337D560680028E1D033E0F3
:100F50006068B0F5803F10D0B0F5A02F286810D0A1
:100F600020F480302860286820F4802028606068A1
:100F7000A8B1FFF737FE06460DE0286840F4803040
:100F8000F4E740F480202860F7E700BFFFF72AFE6F
:100F9000801B642873D828688003F7D50CE0FFF71E
:100FA00021FE064605E000BFFFF71CFE801B6428FB
:100FB000F0D828688003F7D42078DFF8AC82800767
:100FC0004FF0000A3ED5A748001D016811F00C0F34
:100FD00008D00068C0F3810002280BD1D9F80000C6
:100FE000400207D42868800716D5E068012800D1A0
:100FF00012E033E1E068B8B10120C8F80000FFF763
:10100000F1FD064605E000BFFFF7ECFD801B02285E
:10101000C0D828688007F7D52868216920F0F80033
:1010200040EAC10028600DE0C8F800A0FFF7DAFD33
:10103000064604E0FFF7D6FD801B02281FD828686B
:101040008007F7D42078000722D5864F874861694A
:10105000703771B101210160FFF7C4FD064604E05D
:10106000FFF7C0FD801B022809D838688007F7D534
:101070000EE0C0F800A0FFF7B5FD064605E082E0EF
:10108000FFF7B0FD801B02287DD838688007F7D4B1
:101090002078400768D5DFF8CCB100270BF13C0B76
:1010A000DBF80000C0000BD4DBF8001041F08051E9
:1010B000CBF80010DBF80000012700F08050009012
:1010C0006B4E3068C00510D4306840F480703060DA
:1010D000FFF788FD009005E0FFF784FD0099401AB6
:1010E000022850D83068C005F6D55E4EA0686C3630
:1010F00001280FD00528306810D020F001003060A2
:10110000306820F004003060A068B8B1FFF76AFDD5
:1011100000900FE0306840F00100F4E740F0040078
:101120003060F7E7FFF75EFD0099411A41F2883021
:10113000814266D830688007F4D50EE0FFF752FD93
:10114000009007E0FFF74EFD0099411A41F2883008
:10115000814256D830688007F4D42FB1DBF80010F4
:1011600021F08051CBF80010A069C8B33D49091D9A
:101170000968C1F3810102294AD00228504607D0EC
:10118000C8F8600000E03CE0FFF72CFD04463BE0BF
:101190004746C8F86000FFF725FD064605E000BF9A
:1011A000FFF720FD801B02282BD828688001F7D488
:1011B000D4E907010843A16A2E4A490802EB01411C
:1011C000626A41EA8211084394F82C1040EA0161F6
:1011D000C9F8001001203866FFF704FD044606E058
:1011E0003EE000BFFFF7FEFC001B022809D828687C
:1011F0008001F7D534E000BFFFF7F4FC001B0228A4
:1012000002D90320BDE8F88F28688001F4D427E0D4
:101210000128F7D0D9F80000E26900F4800191427A
:101220001CD1226A00F03F01914217D147F6C071EC
:10123000626A0140B1EB821F10D1A26A4FF0FF3306
:1012400000F4403103EB5202B1EB024F06D194F8A7
:101250002C1000F07060B0EB016F01D00120D1E7DD
:101260000020CFE70438024000004742800E47428A
:10127000007000400000FFFF10B5401EB0F1807FFD
:1012800001D3012010BD4FF0E02460610F216017F1
:1012900000F0C8FC0020A06107202061002010BDE4
:1012A00070477047F8B5016804460868CA684B691A
:1012B00010F00F0F4FF0000559D003F0010602F4B3
:1012C0009077374365D0C10705D0D10503D5216C90
:1012D00041F001012164410705D5D90703D0216CF4
:1012E00041F002012164810705D5D90703D0216CA3
:1012F00041F004012164010707D502F020013143C8
:1013000003D0216C41F008012164216C00293AD0FE
:10131000800604D5900602D5204600F000FB206828
:101320004069216CC0F38010090700D460B32046E7
:1013300000F0CEFA20684069400621D520681430BC
:1013400050E8001F21F0400140E80012002AF5D1CA
:10135000A06BA8B16C490165A06BFFF732FB0028B8
:1013600011D0A06B016D01B0BDE8F04008478306C5
:101370000FD593060DD52046BDE8F84000F0CFBA52
:101380002046FFF78EFFF8BD2046FFF78AFF256451
:10139000F8BD266B2023012E79D1C60677D5D60657
:1013A00075D50868486800904869400640D5A16B2B
:1013B000086840680004000CEAD0A28D8242E7D998
:1013C000E085C869B0F5807F2DD020680C3050E8EA
:1013D000001F21F4807140E80012002AF5D1206836
:1013E000143050E8001F21F0010140E80012002AEB
:1013F000F5D12068143050E8001F21F0400140E88A
:101400000012002AF5D184F83E30256320680C30A4
:1014100050E8001F21F0100140E80012002AF5D129
:10142000A06BFFF785FAA08DE18D401A81B229E00B
:10143000A08DE18D401A81B2E08D0028A8D000294E
:10144000A6D020680C3050E8002F22F4907240E8BB
:101450000026002EF5D12068143050E8002F22F02D
:10146000010240E80026002EF5D184F83E302563C5
:1014700020680C3050E8002F22F0100240E80023D2
:10148000002BF5D12046FFF70BFFF8BDFFE705065F
:101490002BD5150629D594F83D002128F5D1A06853
:1014A000B0F5805F01D12069B0B1206A411C216292
:1014B000216800784860E08C401E0004000CE08445
:1014C000E3D12068C16821F08001C1602068C16853
:1014D00041F04001C160D8E7206A0088C0F30800ED
:1014E0004860206A801C2062E5E74006CDD55006A2
:1014F000CBD5CA68204622F04002CA6084F83D304D
:1015000000F039F9C1E70000C118000870B5040007
:1015100004D094F83D00002510B106E0012070BD14
:1015200084F83C50204600F023F8242084F83D0045
:101530002068C16821F40051C160204600F050FAD3
:101540002068016921F4904101612068416921F01E
:101550002A0141612068C16841F40051C1602564DD
:10156000202084F83D0084F83E00002070BD00007B
:1015700010B586B0044614216846FEF76DFE184982
:101580002068884229D117480021026842F01002E1
:101590000260006800F010000590124814380268DC
:1015A00042F001020260006800F0010005904FF473
:1015B000C06000900220CDE90101032003900720C4
:1015C000049069460848FFF70FFA002211462520CB
:1015D000FFF77EFB2520FFF76DFB06B010BD000076
:1015E00000100140443802400000024090F83E30B4
:1015F000202B0ED159B152B190F83C30012B08D0BC
:10160000012380F83C300023036300F06FBA01200F
:101610007047022070470000F0B5244C0025C1B08F
:1016200020784FF48076FF280CD32570314620486F
:10163000FEF712FE4FF6FF730A221EA11F4800F0AC
:1016400041F82AE01A4A61781154401CC1B250187E
:10165000217010F8013C0A2B1FD110F8020C0D2844
:101660001BD100206B46891E02E0175C1F54401CF2
:101670008842FADB124F002240213846FFF7ACFACD
:10168000684603F01DFF257031460948FEF7E4FD6A
:10169000012240213846FFF79FFA41B00349BDE8D7
:1016A000F0400122491C0548FFF7A0BF00000020C0
:1016B000200000206572726F720000003801002067
:1016C000000002402DE9F843044690F83D001F4613
:1016D00016460D4620284CD1C5B1BEB194F83C0049
:1016E000012846D0012084F83C004FF00008C4F8DF
:1016F0004080212084F83D00FFF774FAA6848146DB
:10170000E684A068B0F5805F03D004E00120BDE866
:10171000F883206928B12E465FF0000584F83C80EC
:101720000EE00026FAE78021204600F0FAF9A0B981
:10173000AEB116F8010B21684860E08C401EE084D1
:10174000E08C4B464FF0000200970028EBD14FF0A1
:101750004001204600F0E5F930B10320D7E735F825
:10176000020BC0F30800E6E7202084F83D000020CB
:10177000CDE70220CBE77047FEE7000030B587B029
:1017800014216846FEF768FD11480024016841F005
:1017900080010160016801F080010591016841F05C
:1017A0000101016000680B4D00F001000590224628
:1017B000C0212846FFF710FAC02000900120CDE993
:1017C0000104694628460394FFF70EF907B030BDBF
:1017D00030380240000002400C4810B50A49016050
:1017E0004FF416514160002181600C22C160C0E9B4
:1017F00004128161C161FFF789FE002803D0BDE8B2
:101800001040FFF793B810BD0010014038010020D0
:10181000FEE7FEE7704770477047FFF7E9B9000041
:1018200030B593B030216846FEF716FD14210CA8A0
:10183000FEF712FD1C480024016841F08051016050
:10184000006800F0805011901848016841F4804110
:1018500001600068022500F480401190012003908F
:1018600010200490009506950820CDE907404820F7
:10187000CDE9090504200B906846FFF747FB08B146
:1018800072B6FEE70F20CDE90C054FF48050CDE98C
:101890000E4002210CA81094FFF74CFA002801D04A
:1018A00072B6FEE713B030BD403802400070004011
:1018B0000248016841F470010160704788ED00E062
:1018C00010B5806B0021C185C184FFF7EAFC10BD13
:1018D00001680C3151E8002F22F4907241E8002396
:1018E000002BF5D10168143151E8002F22F00102DC
:1018F00041E80023002BF5D1016B012909D10168D2
:101900000C3151E8002F22F0100241E80023002B97
:10191000F5D1202180F83E1000210163704708B501
:1019200090F83E10222901D0022008BD82684FF4B1
:1019300080539A4201D1016921B1816A9A421BD038
:101940004AB10AE00268816A5268C2F308020A805A
:10195000816A891C08E0026972B10268526802F06B
:101960007F020A70816A491C8162C18D491E090487
:10197000090CC18503D019E002685268F1E70168DB
:10198000CA6822F02002CA600168CA6822F4807224
:10199000CA6001684A6922F001024A61202180F888
:1019A0003E10016B012903D0FFF736FE002008BD71
:1019B0000021016301680C3151E8002F22F0100270
:1019C00041E80023002BF5D101680A68D20602D550
:1019D0000A6849680091818DFFF762FCE6E7000024
:1019E00070B5044600680169E26821F44051114372
:1019F00001612169A068E2690843616911430843F4
:101A00002168CA6849F20C639A430243CA6020689D
:101A10004169A26921F44071114341613149206853
:101A2000884202D03049884202D1FFF72DFA01E006
:101A3000FFF71AFAE2690023192164253226B2F56C
:101A4000004F626828D0A0FB0101930F9200FEF7BF
:101A5000B9FB0146B0FBF5F06FF01802504301EB03
:101A6000800006EB0010B0FBF5F000F0F002B1FBD7
:101A7000F5F002EB0012B1FBF5F06FF018035843DC
:101A800001EB800006EB0010B0FBF5F000F00F005A
:101A900021681044886070BDA0FB010192185B4171
:101AA000FEF790FB0146B0FBF5F00201B1FBF5F04B
:101AB0006FF01803584301EB800006EBC000B0FB49
:101AC000F5F000F0F80002EB4002B1FBF5F05843EE
:101AD00001EB800006EBC000B0FBF5F000F0070062
:101AE000D6E70000001001400014014081628285A9
:101AF000C28500210164222280F83E2080F83C103B
:101B00000168CA6842F48072CA6001684A6942F09A
:101B100001024A610068C16841F02001C1600020F3
:101B200070472DE9F041984617460E460446069D3B
:101B300027E0681C25D02DB1FFF754F8A0EB080072
:101B4000A8421ED920680C3050E8001F21F4D07143
:101B500040E80012002AF5D12068143050E8001F38
:101B600021F0010140E80012002AF5D1202084F87C
:101B70003D0084F83E00002084F83C000320BDE8CE
:101B8000F0812068006836EA000004D00020B842E6
:101B9000CFD00020F3E70120F9E700000148FFF76C
:101BA00081BB000038010020FEE700000FB4054BA8
:101BB00010B503A9044A029802F07EFD10BC5DF83E
:101BC00014FB0000D1530008180000200FB4084B8C
:101BD00010B504A902AA039802F06EFD044602A9FA
:101BE000002003F0ECF8204610BC5DF814FB000068
:101BF000BF4D000803B401984100009850EAC1208D
:101C000018BF04204A0D18BF40F0010040F2FF72D7
:101C1000B2EB515F08BF40F00200012808BF052069
:101C200002B070470907090E002804DB00F1E0202C
:101C300080F80014704700F00F0000F1E02080F8F9
:101C4000141D70470000000010B5B94A2DED020BBD
:101C50002DED0C8B82B00F9921F000409FEDB6CB9B
:101C600090422CDBA0F140530E9AA3F17F631A43FC
:101C70000FD0B349884202DC16D10E98A0B19DED79
:101C80000E0B02B0BDEC0C8B02B0BDE8104002F0B0
:101C9000F7BB0029C1BF9FEDAC0B02B0BDEC0C8BB4
:101CA00002B0C8BF10BD16E0012002F03DFC02B03A
:101CB000BDEC0C8B02B0BDE8104002F0F5BBA44AAD
:101CC0009FEDA59B9FEDA6AB90425EDAA6499FEDE6
:101CD000A8CB814208DBB0EE4C0AF0EE6C0A02B0F1
:101CE000BDEC0C8B02B010BD9DED0E0B53EC102B18
:101CF00051EC100BFEF792FB41EC180B9E480621AD
:101D0000B0EE480AF0EE680A784402F0E5F853ECC9
:101D1000182B51EC100BFEF781FB41EC1B0B974885
:101D2000B0EE480AF0EE680A0421784402F0D4F8D4
:101D300053EC182B51EC100BFEF770FB53EC192BE6
:101D4000FEF7C5FA41EC100B51EC1B0B53EC102BBA
:101D5000FEF7D6FB41EC100B53EC102B9DED0E0B58
:101D600051EC100BFEF75AFB53EC1A2BFEF753FB0A
:101D70009DED0E1B53EC112BFEF74DFB53EC1C2B72
:101D8000FEF749FB41EC100BA9E79FED7D8B9FED22
:101D90007EBB9DED0E0B002953EC192B51EC100B63
:101DA00052DAFEF794FA53EC182BFEF737FB41ECAE
:101DB000180B77480621B0EE480AF0EE680A78441E
:101DC00002F08AF853EC182B51EC100BFEF726FBAF
:101DD00041EC1D0B6F48B0EE480AF0EE680A042192
:101DE000784402F079F853EC182B51EC100BFEF705
:101DF00015FB53EC192BFEF76AFA41EC190B51EC69
:101E0000180B03F02DFD41EC180B53EC192B51EC82
:101E10001D0BFEF775FB53EC182BFEF7FFFA53EC86
:101E20001A2BFEF7F5FA41EC100B51EC180B53ECA2
:101E3000102BFEF74CFA53EC1B2BFEF7EFFA53EC8A
:101E40001C2BFEF7E8FA6DE0FEF7E5FA53EC182BD1
:101E5000FEF7E4FA41EC180B03F002FD41EC1A0B1B
:101E600000208DED00AB00909DED000B51EC1A0BA6
:101E700053EC102BFEF72BFA9DED000B41EC1C0BE5
:101E800053EC102B51EC100BFEF7C8FA53EC182B47
:101E9000FEF7C1FA53EC1C2BFEF732FB41EC1C0B96
:101EA0003D48B0EE480AF0EE680A0621784402F098
:101EB00013F853EC182B51EC100BFEF7AFFA41EC72
:101EC0001D0B3648B0EE480AF0EE680A042178444B
:101ED00002F002F853EC182B51EC100BFEF79EFAAF
:101EE00053EC192BFEF7F3F941EC100B51EC1D0BE1
:101EF00053EC102BFEF704FB53EC1A2BFEF78EFA73
:101F000053EC1C2BFEF7E3F941EC100B53EC102BB8
:101F10009DED000B51EC100BFEF7D9F953EC1B2B88
:101F2000FEF77CFA41EC100BD9E60000000000003F
:101F30000000F03F00000000182D4454FB21094030
:101F40000000F07F00000000000000000000000022
:101F50000000E03F00000000000000000000F03F33
:101F6000075C143326A6913C0000603C0000000092
:101F7000182D4454FB21F93F2C3F00003A3F00004C
:101F8000000000000000E03F0000000000000040F2
:101F9000763E0000843E0000883D0000963D000033
:101FA00070B5C1482DED020B2DED0E8B82B0119D49
:101FB00025F000449FEDBEDB9FEDBFEB84423EDB8E
:101FC000A4F140511098A1F17F6108430FD0BC48A3
:101FD000844202DC28D1109830B39DED100B02B082
:101FE000BDEC0E8B02B0BDE8704002F049BA9DED29
:101FF000100B53EC1D2B51EC100BFEF70FFA9DED5F
:10200000100B41EC180B53EC1E2B51EC100BFEF790
:1020100005FA53EC182BFEF75AF941EC100B02B0FD
:10202000BDEC0E8B02B070BD012002F07DFA02B053
:10203000BDEC0E8B02B0BDE8704002F035BAA1488D
:102040009FEDA18B844256DA9DED100BB4F1795FC0
:102050000ADA51EC100BFFF7CDFD042808BF02F09F
:1020600043FA9DED100BDAE753EC102B51EC100BFB
:10207000FEF7D4F941EC190B95480621B0EE490A58
:10208000F0EE690A784401F027FF53EC192B51EC6C
:10209000100BFEF7C3F941EC1A0B8E48B0EE490A5B
:1020A000F0EE690A0421784401F016FF53EC192B75
:1020B00051EC100BFEF7B2F953EC182BFEF707F9B1
:1020C00041EC100B51EC1A0B53EC102BFEF718FAE5
:1020D000CDE900019DED000B53EC102B9DED100B95
:1020E00051EC100BFEF79AF99DED101B53EC112BE0
:1020F000FEF7EDF8D2E09DED100B51EC100B03F064
:102100005BF953EC182BFEF786F99FED730BCDE9C5
:10211000000153EC102B9DED000B51EC100BFEF762
:102120007DF941EC190B6E480621B0EE490AF0EE3C
:10213000690A784401F0D0FE53EC192B51EC100BD6
:10214000FEF76CF941EC1B0B6648B0EE490AF0EE65
:10215000690A0421784401F0BFFE53EC192B51ECBD
:10216000100BFEF75BF953EC182BFEF7B0F841ECBF
:102170001C0B51EC190B03F073FB41EC180B5A4884
:102180009FED5BABA04222DC53EC1C2B51EC1B0BF4
:10219000FEF7B6F9CDE900019DED000B51EC180BEF
:1021A00053EC102BFEF73AF953EC182BFEF78FF88F
:1021B00053EC1A2BFEF732F953EC1D2BFEF728F9DE
:1021C00053EC1E2BFEF727F941EC100B5FE08DED71
:1021D000008B002000909DED000B51EC180B53EC90
:1021E000102BFEF774F89DED000B41EC1E0B53EC29
:1021F000102B51EC100BFEF711F953EC192BFEF7D5
:102200000AF953EC1E2BFEF77BF941EC190B53EC4A
:102210001C2B51EC1B0BFEF773F941EC1B0B53EC21
:102220001A2B51EC190BFEF7F9F853EC1D2BFEF7A6
:10223000F2F841EC190B53EC1A2B51EC180BFEF78A
:10224000EDF853EC1B2BFEF7E9F853EC192BFEF7D6
:10225000DFF89DED000B41EC180B53EC1A2B51EC01
:10226000100BFEF7DBF89FED249B53EC192BFEF7C8
:10227000D2F841EC100B51EC180B53EC102BFEF77D
:10228000C7F853EC192BFEF7C6F841EC100B002DE4
:102290003FF7C5AE51EC100B81F0004141EC100B43
:1022A000BDE60000000000000000F03F000000005C
:1022B000075C143326A6913C182D4454FB21F93FAA
:1022C0000000F07F0000E03F000000000000F03F51
:1022D000003C00000E3C0000000000000000E03F59
:1022E000523B0000603B00003333EF3F0000000032
:1022F0000000000000000040182D4454FB21E93F7D
:1023000070B59B482DED020B2DED068B079D25F03A
:102310000044A04218DC9748844202DC0AD10698A7
:1023200040B19DED060BBDEC068B02B0BDE87040E0
:1023300002F0A6B8002DCCBF9FED8F0B9FED900B48
:10234000BDEC068B02B070BD8F48A04215DD8F48F2
:10235000A042D8BF4FF0FF3458DD9DED060B51EC85
:10236000100BFFF747FC042808BF02F0BDF89DEDF5
:10237000060BBDEC068B02B070BD9DED060B51EC5B
:10238000100B03F019F8CDE9060181489FED828B0F
:10239000A0423CDD8248A0421FDD00249FED82ABBD
:1023A0009DED060B53EC1A2B51EC100BFDF78FFF34
:1023B0009DED060B41EC190B53EC1A2B51EC100B55
:1023C000FEF72CF853EC182BFEF722F853EC192BE0
:1023D000FEF796F8CDE9060149E09DED060B0124D4
:1023E00053EC182B51EC100BFDF771FF9DED060B14
:1023F00041EC190B53EC182B51EC100BFEF708F8BD
:1024000053EC192BFEF77CF8CDE906012FE0684864
:10241000A0421FDD02249FED689B9DED060B53EC4F
:10242000192B51EC100BFDF7F9FF53EC182BFDF7AE
:102430004EFF9DED060B41EC180B53EC192B51ECA4
:10244000100BFDF7E5FF53EC182BFEF759F8CDE91B
:1024500006010CE09DED060B032453EC102B9FEDC1
:10246000580B51EC100BFEF74BF8CDE906019DED32
:10247000060B53EC102B51EC100BFDF7CFFF41EC8A
:10248000180B53EC182BFDF7C9FF41EC190B4E4804
:102490000621B0EE490AF0EE690A784401F01CFD0D
:1024A00053EC182B51EC100BFDF7B8FF41EC180B57
:1024B0004648B0EE490AF0EE690A0521784401F079
:1024C0000BFD53EC192B51EC100BFDF7A7FF41EC62
:1024D000100B51EC180B53EC102B002C0EDAFDF7FF
:1024E000F6FE9DED061B53EC112BFDF797FF9DEDBE
:1024F000061B53EC112BFDF78EFF35E0FDF7E7FED1
:102500009DED061B53EC112BFDF788FF41EC100BE2
:102510002F48784400EBC40090ED001B51EC100BE9
:1025200053EC112BFDF774FF9DED061B53EC112BA3
:10253000FDF76EFF41EC100B2648784400EBC40019
:1025400090ED001B51EC100B53EC112BFDF763FFCA
:1025500041EC100B002DA2BFBDEC068B02B070BD8C
:1025600051EC100B81F0004141EC100B01E7000031
:10257000000010440000F07F182D4454FB21F93F67
:10258000182D4454FB21F9BF0000DC3F0000203E21
:102590000000F33F00000000000000000000F03FDA
:1025A0000000E63F000000000000000000000040C6
:1025B0000080034000000000000000000000F83F21
:1025C000000000000000F0BFA238000058380000F2
:1025D000E23700009A37000010B52F499FED2C1B01
:1025E0002DED020B84B0059820F000408842D8BF42
:1025F0009DED040B2DDD2949884209D1049840B98D
:102600004FF0010001F090FF01F04EFF06B010BD49
:1026100005DB9DED040B01F033FF06B010BD6846ED
:102620009DED040B01F084F910F0030004BF9DED53
:10263000021B9DED000B0CD001280ED09DED021B5E
:102640009DED000B022817D0012001F0C1FC06B05F
:1026500010BD01F089FB06B010BD9DED021B9DED84
:10266000000B012001F0B4FC51EC100B81F0004193
:1026700006B041EC100B10BD01F076FB51EC100BD5
:1026800081F0004106B041EC100B10BD00000000CD
:102690000000000000000000FB21E93F0000F07F87
:1026A00070B5D94B00242DED020B2DED108BDDE91B
:1026B0001010984205DA20F000429A4201D809D160
:1026C00041B19DED100BBDEC108B02B0BDE8704028
:1026D00001F0D6BEB0F5801F26DA11430BD00028DA
:1026E00013DA012001F020FFBDEC108B02B0BDE831
:1026F000704001F0D9BE022001F016FF01F0A8FEE3
:1027000051EC100B81F000419EE06FF035049FED1D
:10271000C00B53EC102B9DED100B51EC100BFDF783
:102720007DFECDE91001084604EB2051C0F31304EF
:10273000B948A1F2FF31204400F4801080F07F629C
:1027400082F04052224301EB20559FEDB50B1192D0
:1027500053EC102B9DED100B51EC100BFDF758FEB8
:1027600041EC180BA01CC0F313009FEDAFDB9FEDF5
:10277000B0EBB14E7E4403286CD296ED000B51ECC9
:10278000180B53EC102BFDF749FF1DD1002D01BF95
:1027900096ED000BBDEC108B02B070BD2846FDF726
:1027A0001EFF41EC180B53EC1D2BFDF737FE41ECDF
:1027B000190B53EC1E2B51EC180BFDF72FFE53ECAD
:1027C000192BFDF784FD3FE09FED9D0B51EC180B9D
:1027D00053EC102BFDF722FE9FED9B1B53EC112BAE
:1027E000FDF719FE41EC190B53EC182B51EC180BAB
:1027F000FDF714FE53EC192BFDF710FE41EC190BFD
:10280000002D04BF53EC192B51EC180B1AD028469D
:10281000FDF7E5FE41EC1A0B53EC1D2BFDF7FEFD19
:1028200053EC192BFDF7F7FD53EC182BFDF7F0FDDA
:1028300041EC180B53EC1E2B51EC1A0BFDF7EEFD7F
:1028400053EC182BFDF7E4FDBDEC108B02B041EC0E
:10285000100B70BD9FED7E0B51EC180B53EC102B41
:10286000FDF735FD41EC100B51EC180B53EC102B20
:10287000FDF746FE41EC190B2846FDF7B0FE41EC92
:102880001B0B53EC192B51EC190BFDF7C7FD41EC59
:102890001A0B714853EC1A2B261851EC1A0BFDF742
:1028A000BDFD41EC1F0B6D48C4F1510404F5D72464
:1028B000B0EE4F0AF0EE6F0A0321784401F00CFBF2
:1028C00053EC1F2B51EC100BFDF7A8FD41EC1C0B3A
:1028D0006348B0EE4F0AF0EE6F0A0421784401F02D
:1028E000FBFA53EC1A2B51EC100BFDF797FD344318
:1028F00053EC1C2BFDF7EBFC41EC1C0B002C4CDDCE
:102900009FED510B51EC180B53EC102BFDF786FD8E
:1029100053EC182BFDF782FD41EC1A0B55B353EC29
:102920001D2B51EC1B0BFDF779FD41EC1D0B53ECFE
:102930001C2B51EC1A0BFDF7CAFC53EC192BFDF7BD
:102940006DFD53EC1D2BFDF7C2FC53EC1A2BFDF76C
:1029500062FD53EC182BFDF75BFD41EC180B53ECBB
:102960001E2B51EC1B0BFDF759FD53EC182BFDF7FB
:102970004FFD69E753EC1C2B51EC1A0BFDF7A7FC3C
:1029800053EC192BFDF74AFD53EC1A2BFDF743FDD1
:1029900053EC182BFDF73FFD56E735B353EC1D2BD9
:1029A00051EC1B0BFDF73AFD41EC1A0B53EC1C2BC1
:1029B00051EC180BFDF72CFD53EC192BFDF72EFDF8
:1029C00053EC1A2BFDF724FD53EC182BFDF720FDDB
:1029D00041EC180B53EC1E2B51EC1B0BFDF71EFDAD
:1029E00053EC182BFDF714FD2EE753EC1C2B51EC88
:1029F000180BFDF70DFD53EC192BFDF70FFD53ECF4
:102A0000182BFDF708FD1FE70000F07F0000000015
:102A10000000000000005043645F09000000000057
:102A2000000000000000F03F763C7935EF39EA3DC8
:102A30000000E0FE422EE63FE83600000000000005
:102A4000555555555555D53F000000000000E03F55
:102A5000000000000000004086EBF9FFB2340000E7
:102A6000A83400000000000070B5414A00252DED9B
:102A7000020B2DED048BDDE90404944205DA24F009
:102A80000041914201D809D140B19DED040BBDEC4C
:102A9000048B02B0BDE8704001F0F2BCB4F5801FB9
:102AA00026DA08430BD0002C13DA012001F03CFD9C
:102AB000BDEC048B02B0BDE8704001F0F5BC022013
:102AC00001F032FD01F0C4FC51EC100B81F000412B
:102AD00046E09FED290B6FF0350553EC102B9DED73
:102AE000040B51EC100BFDF799FCCDE904010C46E9
:102AF00005EB2450A0F2FF30C10F40F2FF32521A12
:102B000062F31F540844FDF76AFD05949DED040B24
:102B100041EC180B51EC100B02F0A7FC9FED181BB9
:102B200053EC112BFDF77AFC9FED170B41EC190BC1
:102B300053EC102B51EC180BFDF770FC53EC192BD8
:102B4000FDF7C5FB9FED120B41EC190B53EC102B5D
:102B500051EC180BFDF762FC53EC192BFDF7B7FB9A
:102B6000BDEC048B02B041EC100B70BD0000000006
:102B70000000F07F00000000000000000000504353
:102B80000EE526157BCBDB3F362BF111F3FE593DCD
:102B900000609F501344D33F2DE9F04D2DED040B01
:102BA0002DED0E8B96B0DDE92550279CDDF890A029
:102BB00025F0004624F00048BAF1000F14BF0121AF
:102BC000002101EB4502FC4953184A1093422AD3D5
:102BD000002814BF0123002303EB44030B44F749EF
:102BE0008B4220D358EA00019FEDF59B76D0DFF8A9
:102BF000D8B35D4503D1BAF1000F05D188E0BAF131
:102C0000000F08BF002100D0012101EB450111F5A3
:102C1000001F08D8002814BF0121002101EB440146
:102C200011F5001F0BD99DED261B9DED240B16B051
:102C3000BDEC0E8B04B0BDE8F04D01F02BBC0027BD
:102C4000002DBCBFE149884521DAE1498845A8BF8C
:102C500002271CDAC3451ADCDE4901EB285114298E
:102C600008DDC1F1340220FA02F101FA02F28242D7
:102C70000DD108E058B9C1F1140228FA02F101FAA5
:102C800002F2424503D101F00101C1F1020756EA07
:102C90000A0124D1002C22DA002D18BF022F01D006
:102CA000012F0AD0022001F03FFC16B0BDEC0E8BC4
:102CB00004B0BDE8F04D01F0CBBB022001F034FCC4
:102CC00001F0C6FB51EC100B81F0004141EC100B00
:102CD00016B0BDEC0E8B04B0BDE8F08D18E09FED92
:102CE000BEAB9FEDBF8B002871D1B848804522D183
:102CF00005F1804010F5801008BFBAF1000F07D031
:102D0000B3450ADC002CA8BF9DED260BE0DA0DE0F0
:102D1000B0EE490AF0EE690ADAE7002C06DA9DED1A
:102D2000260B51EC100B81F000416FE0AE48784467
:102D300090ED000BCCE7D8454DD1002C48DA2EB1F0
:102D400086423AD1BAF1000F42D126E0BAF1000F23
:102D500013D0022001F0E8FB01F0B6FB8DED020B71
:102D60009DED240B8DED000B10EE900A039961F39D
:102D70001E0003909DED020BAAE78DED02AB9DEDC9
:102D8000240B1AEE901A10EE900A8DED000B61F3F1
:102D90001E0003909DED020B9AE78DED028B9DEDD9
:102DA000240B18EE901A10EE900A8DED000B61F3D3
:102DB0001E0003909DED020B8AE709DA9DED240BBE
:102DC00051EC190B53EC102BFDF79AFB1EE020E0A1
:102DD0009DED240B7CE786421BDAB4F1804F0DD0C9
:102DE000A4F10050B0F1FF5013D1002D11DB9DED87
:102DF000240B51EC100B02F033FD07E09DED240B8A
:102E000053EC102B51EC100B00F0C2BC41EC100B3A
:102E10005EE79DED240B51EC100B02F0CDFABAF1F8
:102E2000000FCDE90E0142D19FED710B46B3A6F123
:102E3000E040B0F17F600CD05E4538D1002D00DA63
:102E4000A7B3022F0CBF01204FF0FF30FDF7C7FBE7
:102E5000DCE7002D01DD002C0DDA002D01DD002C5A
:102E60001FDB002D16DA002C14DB012F08BF9FEDAD
:102E7000620B3FF42DAFB0EE4A0AF0EE6A0A27E784
:102E8000022F18BF002D0CD0012F0AD1002DFFF604
:102E90001FAF06E0002DB8BF002C08DA012F3FF469
:102EA00017AFB0EE480AF0EE680A11E71BE0012008
:102EB00000EBE57050EA070115D0791EB0EE498AA3
:102EC000F0EE698A084308BF9FED4D8B4E48002500
:102ED000804570DD4D494E48884514DDB0420DDB1C
:102EE000002C19DB2FE0012001F01EFB16B0BDEC19
:102EF0000E8B04B0BDE8F04D01F0D6BAB34502DC4C
:102F0000002C09DC1FE0864202DA002C1BDA03E009
:102F10005E452BDD002C16DD022001F005FB01F0E3
:102F2000D3FA8DED020B53EC1A2B51EC180BFDF775
:102F300075FACDE900010399019861F31E00039031
:102F40009DED020BC4E6022001F0EEFA01F0CCFA8E
:102F500010EE901A18EE900A8DED020B8DED008B9D
:102F600061F31E0003909DED020BB1E69DED0E0B8B
:102F700053EC192B51EC100BFDF74AFA9FED260B81
:102F8000CDE9080153EC102B9DED080B51EC100B13
:102F9000FDF744FA9FED221B53EC112BFDF73BFA92
:102FA0009DED081B53EC112BFDF738FA9FED1E1B0E
:102FB00053EC112B3CE08CE0FFFF1F00FFFF0F00E4
:102FC000000000000000F03F0000F03F0000F07F34
:102FD0000000404301FCFFFF000000000000F07F04
:102FE00000000000000000002E3100000000000082
:102FF0000000000000000080000000000000F0FF62
:10300000000000000000F0BF0000E0410000F043BD
:10301000FFFFEF3F00000000000000000000D03F75
:10302000555555555555D53F000000000000E03F6F
:10303000FDF7F1F99DED080B41EC1A0B53EC102B49
:1030400051EC100BFDF7EAF953EC1A2BFDF7E6F9FA
:1030500041EC1A0B9FEDFE0B53EC102B9DED080B72
:1030600051EC100BFDF7DAF941EC1B0B9FEDFA0B5D
:1030700051EC1A0B53EC102BFDF7D0F941EC1A0B65
:103080009FEDF70B53EC102B9DED080B51EC100B43
:10309000FDF7C4F953EC1A2BFDF7BAF941EC1A0B02
:1030A00051EC1B0B53EC1A2BFDF711F90690CDE9EF
:1030B00006519DED060B53EC1B2B51EC100BFDF74D
:1030C000A7F953EC1A2BFDF7A6F941EC100B00F011
:1030D000A1B90020B6F5801F0EDA9FEDE30B53EC8B
:1030E000102B9DED0E0B51EC100BFDF797F9CDE970
:1030F0000E016FF034000E4600EB2650A0F2FF37B1
:10310000C6F31300DA4940F07F6646F04056884225
:10311000D8BF002408DDD7498142C8BF012403DCA1
:103120000024A6F580167F1CD348784400EBC40029
:103130000F9690ED00CB9DED0E0B53EC1C2B51EC3C
:10314000100BFDF765F99DED0E0B41EC1B0B53ECDD
:103150001C2B51EC100BFDF7BAF841EC100B51ECA5
:10316000190B53EC102BFDF7CBF941EC1D0B51EC77
:103170001B0B53EC1D2BFDF751F941EC1A0BBF480B
:103180008DED10AB7844109590ED000B4FF0005092
:1031900040EA660000EB84408DED080B00F500204E
:1031A00009909DED080B53EC1C2B51EC100BFDF717
:1031B0002FF99DED0E1B53EC112BFDF72CF941EC73
:1031C000100B53EC102B9DED100B51EC100BFDF779
:1031D00025F99DED080B41EC1C0B53EC102B9DEDDC
:1031E000100B51EC100BFDF719F953EC1B2BFDF7ED
:1031F00012F953EC1C2BFDF70BF953EC1D2BFDF7CB
:103200000DF941EC1C0B53EC1A2B51EC1A0BFDF78A
:1032100005F941EC1B0B9A480621B0EE4B0AF0EE83
:103220006B0A784400F058FEB0EE401AF0EE601AD7
:10323000B0EE41DAF0EE61DA53EC1B2B51EC1B0BD4
:10324000FDF7ECF853EC1D2BFDF7E8F89DED100BA6
:1032500041EC1B0B53EC1A2B51EC100BFDF737F81C
:1032600053EC1C2BFDF7DAF853EC1B2BFDF72FF872
:103270009DED100B41EC1B0B53EC102B51EC100B84
:10328000FDF7CCF841EC1D0B9FED7FEB53EC1E2BB3
:10329000FDF71DF853EC1B2BFDF719F80890CDE94D
:1032A00008519DED080B53EC1E2B51EC100BFDF754
:1032B000AFF853EC1D2BFDF7ABF853EC1B2BFDF7D0
:1032C000AAF89DED080B41EC1D0B53EC102B9DED66
:1032D000100B51EC100BFDF7A1F841EC1B0B53EC5C
:1032E0001A2B51EC1D0BFDF799F89DED080B41ECE5
:1032F0001A0B53EC102B51EC1C0BFDF78FF853EC11
:103300001A2BFCF7E4FF41EC1A0B51EC1B0B53ECAE
:103310001A2BFCF7DCFF0C90CDE90C519DED0C0B4A
:1033200053EC1B2B51EC100BFDF772F853EC1A2BDE
:10333000FDF771F841EC1B0B9FED550B53EC102B77
:103340009DED0C0B51EC100BFDF768F841EC1A0BDE
:103350009FED510B51EC1B0B53EC102BFDF75EF85E
:1033600041EC1B0B9FED4E0B53EC102B9DED0C0B0A
:1033700051EC100BFDF752F853EC1B2BFCF7A7FF99
:1033800041EC100B4848784400EBC40090ED001B62
:1033900051EC100B53EC112BFCF799FF41EC1B0B7C
:1033A0003846FDF71CF9CDE9080153EC1B2B51EC15
:1033B0001A0BFCF78CFF41EC100B3C48784400EBF7
:1033C000C40090ED00CB51EC100B53EC1C2BFCF720
:1033D0007EFF9DED081B53EC112BFCF778FF069048
:1033E000CDE906519DED080B53EC102B9DED060B1E
:1033F00051EC100BFDF70CF853EC1C2BFDF708F803
:1034000053EC1A2BFDF704F853EC1B2BFDF703F8D4
:1034100041EC100B9DED261B53EC102B8DED001B8A
:1034200000959DED260B51EC100BFCF7F7FF9DED81
:10343000000B41EC1A0B53EC102B9DED260B51ECBD
:10344000100BFCF7E5FF9DED061B53EC112B2FE055
:10345000000000604715F73FFE822B654715F73FD8
:1034600044DF5DF80BAE543E000000000000404316
:103470008E9803007AB60B007A2C0000D82C00003E
:10348000B22B000000000000000000000000084017
:10349000000000E009C7EE3FFD033ADC09C7EE3F3C
:1034A000F5015B14E02F3EBE3E2A0000F829000023
:1034B000FCF7B4FF53EC1A2BFCF709FF9DED060B4C
:1034C00041EC1A0B53EC102B9DED000B51EC100B43
:1034D000FCF7A4FFCDE90C019DED0C0B51EC1A0B90
:1034E00053EC102BFCF7F3FECDE902010C46AA4980
:1034F0008C422FDB611A084318D19DED0C0B53EC65
:10350000102B9DED020B51EC100BFCF781FF41ECF1
:103510001B0B9FEDA30B51EC1A0B53EC102BFCF77C
:10352000D6FE53EC1B2BFDF791F82DD2022000F0B4
:10353000FBFF00F0C9FF10EE901A18EE900A8DED17
:10354000020B8DED008B61F31E0003909DED020BCD
:10355000FFF7BEBB944A24F00041914214D3934933
:10356000214408437FF4EFAC9DED0C0B53EC102B82
:103570009DED020B51EC100BFCF74AFF53EC1A2B9C
:10358000FDF764F87FF6DFAC24F000408849894AF3
:10359000002601EB205182422BDA481C4FF48011A7
:1035A00021FA00F02044844AC0F30A517A44A1F27F
:1035B000FF3192ED000B814A8DED080BCA4020EAE5
:1035C0000202C0F3130040F48010C1F1140120FA8C
:1035D00001F60992002CB8BF76429DED080B53EC22
:1035E000102B9DED0C0B51EC100BFCF711FFCDE9EE
:1035F0000C019DED0C0B51EC1A0B53EC102BFCF74E
:1036000066FE9FED6F0B0890CDE9085153EC102B2F
:103610009DED080B51EC100BFCF700FF41EC1B0B70
:103620009FED690B53EC102B9DED080B51EC100B2B
:10363000FCF7F4FE9DED0C0B41EC1C0B53EC102B36
:103640009DED080B51EC100BFCF7E2FE53EC1A2B2E
:10365000FCF7E1FE9FED5E1B53EC112BFCF7DEFE49
:1036600053EC1C2BFCF733FE41EC1A0B51EC1B0BFB
:1036700053EC1A2BFCF72BFECDE902019DED020B5A
:1036800053EC1B2B51EC100BFCF7C2FE53EC1A2B26
:10369000FCF7C1FE9DED020B41EC1A0B53EC102B15
:1036A00051EC100BFCF7BAFECDE908014A489DED3C
:1036B000080B0521784400F00FFC9DED081B51EC30
:1036C000100B53EC112BFCF7A9FE9DED021B53ECE4
:1036D000112BFCF7A0FECDE906019DED020B53EC8A
:1036E0001A2B51EC100BFCF799FE53EC1A2BFCF73C
:1036F000EEFD9FED3B0B41EC1A0B53EC102B9DEDB7
:10370000060B51EC100BFCF783FE9DED060B41EC14
:103710001B0B53EC102B9DED020B51EC100BFCF727
:103720007DFE53EC1B2BFCF7EBFE53EC1A2BFCF746
:103730006FFE9DED021B53EC112BFCF769FE53EC61
:10374000192BFCF768FECDE9020101EB06500115CB
:103750000029C8BF039015DC9DED020B324651ECE9
:10376000100BFDF72FF8FEF745FA042808BF00F00C
:10377000BBFE32469DED020B51EC100BFDF722F81B
:10378000CDE902019DED020B51EC180B53EC102B0F
:10379000FCF744FEFFF73ABB000090400000000039
:1037A000FE822B654715973C00CC904000346F3F5C
:1037B00001FCFFFF0000E03FB0280000FFFF0F000A
:1037C00000000000432EE63F396CA80C615C20BE6F
:1037D000EF39FAFE422EE63F5027000000000000BD
:1037E000000000000000004010B52F499FED2C1B89
:1037F0002DED020B84B0059820F000408842DCBF1C
:1038000000209DED040B32DD2849884209D104983F
:1038100040B94FF0010000F087FE00F045FE06B011
:1038200010BD05DB9DED040B00F02AFE06B010BDB7
:1038300068469DED040B00F07BF810F0030011D0FA
:10384000012818D09DED021B9DED000B02281AD017
:1038500000F08AFA51EC100B81F0004106B041EC07
:10386000100B10BD9DED021B9DED000B012000F023
:10387000AFFB06B010BD9DED021B9DED000B00F0EF
:1038800073FA06B010BD012000F0A2FB51EC100B42
:1038900081F0004106B041EC100B10BD00000000AB
:1038A0000000000000000000FB21E93F0000F07F65
:1038B00010B51D499FED1A1B2DED020B84B0059824
:1038C00020F000408842DCBF01209DED040B21DD8B
:1038D0001649884209D1049840B94FF0010000F020
:1038E00023FE00F0E1FD06B010BD05DB9DED040BED
:1038F00000F0C6FD06B010BD68469DED040B00F05B
:1039000017F800F001000121A1EB40009DED021B22
:103910009DED000B00F0F4FB06B010BD00000000B0
:103920000000000000000000FB21E93F0000F07FE4
:103930002DE9F14F04462DED020B2DED088B8AB0D9
:103940009FEDE70B80ED020B139EE74826F0004544
:1039500085420ADC9DED120B002084ED000B0AB0BD
:10396000BDEC088B03B0BDE8F08FE0489FEDE0AB05
:103970009FEDE1BBA84247DDE14F9FEDE39B9FED4B
:10398000E48B9DED120B53EC1A2B51EC100B002E17
:103990001CDDFCF73DFD41EC100BBD4208D053ECA3
:1039A0001B2B51EC100BFCF733FDC4E900010BE0BD
:1039B00053EC192B51EC100BFCF72AFD53EC182B90
:1039C000FCF726FDC4E900010120C8E7FCF77FFCF5
:1039D00041EC100BBD4208D053EC1B2B51EC100BEB
:1039E000FCF775FCC4E900010BE053EC192B51EC1A
:1039F000100BFCF76CFC53EC182BFCF768FCC4E9CB
:103A000000014FF0FF30AAE7C348A84279DB9DEDE3
:103A1000120B51EC100B01F0CFFC41EC180B9FED99
:103A2000C00B53EC102BFCF7F9FC9FEDBF1B53ECC4
:103A3000112BFCF74CFCFCF758FF0746FCF7CFFDB9
:103A400041EC190B53EC1A2BFCF7E8FC53EC182B48
:103A5000FCF7E1FC41EC180B53EC1B2B51EC190B60
:103A6000FCF7DCFCDFF8C8A241EC100B4FEA15585C
:103A70000125FA4453EC102B51EC180BFCF7C8FC51
:103A8000032DC4E900013DD0C1F30A5005EB4511F7
:103A9000A8EB00001139814234DA0AEB051BB0EEC5
:103AA00048AA9BED000BF0EE68AA53EC102B51ECEA
:103AB000190BFCF7B3FC41EC1B0B51EC1A0B53EC4C
:103AC0001B2BFCF7A5FC41EC180B51EC1A0B53EC2B
:103AD000182BFCF79DFC53EC1B2BFCF799FC9BED82
:103AE000020B41EC1A0B53EC102B51EC190BFCF7A9
:103AF00095FC53EC1A2BFCF78BFC41EC100B6D1C66
:103B0000B8E70EE0002EA8BF3846BFF628AF94ED08
:103B1000000B51EC100B81F00041C4E90001784228
:103B20001DE7C6F3130040F4801EC6F30A50A0F24E
:103B3000F530471100F01F05C5F12000DDF848B051
:103B400008900020069007900520EC467949002D4A
:103B500007EB0002794408BF51F8221009D051F850
:103B6000223001EB8201AB404A68089922FA01F148
:103B70001943A1FB0E26A1FB0B131A449A4234BF32
:103B80000123002303EB06080CEB8003D3E901A615
:103B90000E448E4234BF0121002192448A4411B167
:103BA000924502D903E0924501D2012100E00021B3
:103BB000C3E901A641444CF82010011EA0F1010008
:103BC000C4DC029800F10050850F0298DDE903671C
:103BD0008000DDF81480FCF702FD41EC1A0B304642
:103BE000FCF70EFD9FED541B53EC112BFCF716FC5C
:103BF00041EC1B0B3846FCF703FD9FED511B53ECCA
:103C0000112BFCF70BFC41EC180B4046FCF7F8FCC1
:103C10009FED4D1B53EC112BFCF700FC41EC190BF5
:103C200051EC180B53EC192BFCF751FB53EC1B2BED
:103C3000FCF74DFB53EC1A2BFCF749FBCDE90801CF
:103C4000002008909DED080B53EC1A2B51EC100B43
:103C5000FCF7DEFB53EC1B2BFCF7DAFB53EC182BC9
:103C6000FCF7D6FB53EC192BFCF7D5FB9FED381B6B
:103C700053EC112BFCF7D2FB9FED370B41EC180BEB
:103C800053EC102B9DED080B51EC100BFCF7C6FB11
:103C900053EC182BFCF71BFB9FED310B41EC180B81
:103CA00053EC102B9DED080B51EC100BFCF7B6FB01
:103CB00053EC182BFCF70BFB41EC100B139810F096
:103CC000004F06D06D4251EC100B81F0004141ECE9
:103CD000100B284684ED000B41E6000000000000B8
:103CE0000000000000000000FB21E93F7CD90240F9
:103CF00000004054FB21F93F3163621A61B4D03DAA
:103D0000FB21F93F000000000000601A61B4D03DC3
:103D10007370032E8A19A33BFB2139410000000078
:103D200083C8C96D305FE43F000000000000E03F41
:103D3000F223000040230000000000000000103EBD
:103D4000000000000000103C000000000000103ADD
:103D5000182D4454FB21F93D3326A611460B113C86
:103D600000000054FB21F93D10B52DED040B2DEDA5
:103D7000088B82B0B0EE419AF0EE619A0B9820F079
:103D800000449FED4BABB4F1795F11DA9DED0A0B66
:103D900051EC100BFCF7A9FD002801BFB0EE4A0A58
:103DA000F0EE6A0A02B0BDEC088B04BF04B010BD8F
:103DB0009DED0A0B53EC102B51EC100BFCF72EFB76
:103DC00041EC180B3C480621B0EE480AF0EE680AB8
:103DD000784400F081F853EC182B51EC100BFCF7F1
:103DE0001DFB9DED0A0B41EC1B0B53EC192B51EC09
:103DF000100BFCF713FB41EC190B53EC1B2B51EC94
:103E0000180BFCF70BFB53EC192BFCF701FB9FED98
:103E10002C0B41EC190B53EC102B51EC180BFCF74D
:103E2000FDFA41EC100B2848844210DA53EC192BB0
:103E300051EC100BFCF7ECFA53EC1A2BFCF7EBFAF5
:103E400041EC100B02B0BDEC088B04B010BD1F4854
:103E5000A042BCBF9FED1E1B8DED001B06DBA4F531
:103E600000100190002000909DED001B51EC100B04
:103E700053EC112BFCF7CCFA9DED000B41EC180B29
:103E800053EC102B51EC1A0BFCF7C2FA41EC1A0B55
:103E900053EC192B51EC180BFCF7BAFA53EC1A2B14
:103EA000FCF7B9FA41EC100BCCE700000000000071
:103EB000000000000000F03F5C2000000000000057
:103EC000000000000000E03F3333D33F0000E93F33
:103ED000000000000000D23F70B504462DED028BBB
:103EE0004D1E00EBC500B0EE408AF0EE608A90ED0A
:103EF000000B35F0060017D053EC182B51EC100BCB
:103F0000FCF78CFA41EC100B6D1E04EBC50090ED34
:103F1000001B51EC100B53EC112BFCF7D8F941ECC2
:103F2000100B35F00600E7D1022D36D0042D1CD041
:103F3000062D1CBFBDEC028B70BD53EC182B51EC51
:103F4000100BFCF76BFA94ED0A1B53EC112BFCF7EA
:103F5000BEF953EC182BFCF761FA94ED081B53ECF7
:103F6000112BFCF7B4F941EC100B53EC182B51EC6E
:103F7000100BFCF753FA94ED061B53EC112BFCF7D6
:103F8000A6F953EC182BFCF749FA94ED040B53EC0B
:103F9000102BFCF79CF941EC100B53EC182B51EC57
:103FA000100BFCF73BFA94ED021B53EC112BFCF7C2
:103FB0008EF953EC182BFCF731FA94ED001B53ECFF
:103FC000112BFCF784F9BDEC028B41EC100B70BD9A
:103FD00031B504462DED040B2DED0A8BB0EE41BA40
:103FE000F0EE61BA0B989DED0A0B20F00040B0F1A5
:103FF000795F0DDA51EC100BFDF7FCFD042808BFCA
:1040000000F072FA9DED0A0BBDEC0A8B05B030BDD5
:1040100053EC102B51EC100BFCF700FA41EC180B91
:104020009DED0A0B53EC182B51EC100BFCF7F6F935
:1040300041EC190B2C48B0EE480AF0EE680A052155
:104040007844FFF749FF9FED2ACBB0EE40AAF0EE8F
:1040500060AA9CB353EC1C2B51EC190BFCF7DEF956
:1040600041EC1C0B53EC1A2B51EC190BFCF7D6F955
:104070009FED210B41EC190B53EC102B51EC1B0B5A
:10408000FCF7CCF953EC192BFCF7C2F953EC182BC5
:10409000FCF7C4F953EC1B2BFCF7BAF953EC1C2BBF
:1040A000FCF7B6F99DED0A1B53EC112BFCF7B3F9A5
:1040B000BDEC0A8B05B041EC100B30BDFFE753ECB3
:1040C0001A2B51EC180BFCF7A9F953EC1C2BFCF73D
:1040D000FEF853EC192BFCF7A1F99DED0A1B53ECEC
:1040E000112BFCF7F4F8E3E7EC1E000000000000E1
:1040F000495555555555C5BF000000000000E03F2B
:10410000F1B506462DED040BBD482DED0C8B8AB0A4
:10411000B0EE418AF0EE618A179D25F000449FEDD4
:10412000BABB9FEDBBCB844208DA9DED160B51EC78
:10413000100BFCF7DAFB002800F0E980B64FA7422D
:1041400031DC002D0DDA9DED160B51EC100B81F0DA
:104150000041CDE9160151EC180B81F0004141EC12
:10416000180B9FEDAF0B53EC102B9DED160B51EC84
:10417000100BFCF750F953EC182B9FEDAB0BCDE96E
:10418000040151EC100BFCF743F941EC100B53EC1C
:10419000102B9DED040B51EC100BFCF798F89FEDE4
:1041A000A48BCDE916019DED160B53EC102B51ECB1
:1041B000100BFCF733F9CDE904019DED040B53EC32
:1041C000102B51EC100BFCF729F941EC190B9A4814
:1041D0000621B0EE490AF0EE690A7844FFF77CFE4A
:1041E0009648B0EE40DAF0EE60DAB0EE490AF0EE52
:1041F000690A06217844FFF76FFE9DED041B51EC20
:10420000100B53EC112BFCF709F99DED040B41EC5D
:104210001A0B53EC102B9DED160B51EC100BFCF709
:10422000FDF841EC190B53EC1A2B51EC1D0BFCF76C
:104230004EF853EC192BFCF7F1F853EC182BFCF764
:1042400046F89DED041B53EC112BFCF7E7F853ECFB
:10425000182BFCF73CF841EC180B9FED790B51EC57
:10426000190B53EC102BFCF7D9F853EC182BFCF777
:104270002EF841EC190B9DED160B53EC192B51EC5C
:10428000100BFCF724F841EC180BA74269DC304610
:10429000FCF7A5F941EC1A0B51EC180B53EC1A2B57
:1042A000FCF715F841EC1B0B53EC182B51EC180BD9
:1042B000FCF7B4F853EC1B2BFCF722F953EC192B49
:1042C000FCF7A6F89DED161B53EC112BFCF7A3F899
:1042D0009FED5D1B53EC112BFCF7A0F853EC1A2B50
:1042E000FCF799F841EC180B022000EAA570C0F128
:1042F0000100FCF774F953EC182BFCF78FF800BFA2
:1043000041EC100B0AB0BDEC0C8B05B0F0BD711C7C
:104310001698214308430CD09DED160B012E1CBFAF
:1043200053EC102B51EC1C0B10D000BFFCF7E8F83D
:10433000E6E79DED160B51EC100B01F03DF841EC5A
:10434000100B51EC1B0B53EC102BEFE751EC100B47
:10435000FDF750FC042808BF00F0C6F89DED160BD1
:10436000D0E7012E04BFB0EE480AF0EE680AC9D0CB
:104370008DED048B002404949DED040B53EC102B65
:104380009DED160B51EC100BFCF745F853EC192B77
:10439000FCF741F841EC190B53EC182B51EC1C0BBA
:1043A000FCF7AEF841EC180B8DED008B00949DED01
:1043B000040B53EC102B9DED000B51EC100BFCF794
:1043C0002DF853EC1B2BFBF782FF9DED000B41EC0E
:1043D0001A0B53EC192B51EC100BFCF71FF853EC94
:1043E0001A2BFBF774FF53EC182BFCF717F89DED15
:1043F000001B53EC112BFBF76AFF81E70000000064
:104400000000303E00000000000000000000F03F0F
:10441000000000000000F0BF2894E53F000000000D
:10442000182D4454FB21E93F075C143326A6813C38
:1044300000000000000000007A1D0000901D000038
:10444000635555555555D53F00000000000000400C
:104450009FED070B10B553EC102B9FED070B51ECA4
:10446000100BFCF74DF841EC100B10BD00000000E4
:104470000000000000000000000000000000F03F0D
:1044800010B553EC102B51EC100BFBF720FF41EC57
:10449000100B10BD10B553EC112B51EC100BFBF7AA
:1044A00016FF41EC100B10BD9FED050B10B553EC42
:1044B000102B51EC100BFCF723F841EC100B10BD46
:1044C00000000000000000009FED050B10B553EC4C
:1044D000102B51EC100BFBF7A1FF41EC100B10BDA2
:1044E00000000000000000709FED050B10B553ECBC
:1044F000102B51EC100BFBF791FF41EC100B10BD92
:10450000000000000000001002E008C8121F08C1EF
:10451000002AFAD170477047002001E001C1121F44
:10452000002AFBD170470000014908607047000075
:104530001C0000202DE9FF5F82B00021DDE904307E
:10454000020DDDF840B0034318D044F61050A2F23B
:10455000FF3242431514119801281FD0A5EB0B0020
:10456000401C5FEA000A4FF000064E4FDFF838911A
:10457000B046504615D5CAF1000413E01198012445
:104580004AA3012801D16FEA0B010298119AC0E9F0
:104590000031C0E9024206B0BDE8F09FCBF1000057
:1045A000DFE704460021404A491842EB0450CDE9B8
:1045B000001012E0E00707D032463B46404649462D
:1045C000FBF72CFF8046894632463B46104619468B
:1045D000FBF724FF06460F466410002CEAD1DDE904
:1045E0000401DDE90023BAF1000F06DAFBF716FF3C
:1045F00042464B46FBF712FF05E0FBF781FF4246C0
:104600004B46FBF77DFF04460E460022284BFCF785
:104610001DF803D84FF0FF30014607E00022254B7C
:1046200020463146FBF753FEFCF7E3F8102409E07F
:10463000002C0ADB0A220023FBF7C4FD039B303267
:104640001A55641E50EA0102F2D1641C039AC4F1A7
:1046500011031444119A012A03D0012208430DD1F9
:104660000AE0084304D000204FF0110B119072E7CC
:10467000A3EB0B056D1E0DE05B4504DD4FF0000262
:1046800005F1010504E003DA4FF00002A5F1010590
:10469000002AECD002981199C0E90231C0E9004526
:1046A00079E70000000014400000F03F30000000F7
:1046B0000000F0430000E03F2DE9FF4F95B09A461F
:1046C000884606460025EEE1252877D100242746B6
:1046D000F94A0121039400E0044316F8013F203B0E
:1046E00001FA03F01042F7D130782A2811D06FF088
:1046F0002F033078A0F13002092A16D8039A44F02B
:10470000020402EB820203EB42021044761C039087
:10471000EFE758F8042B0392002A03DA504244F4DE
:104720000054039044F00204761C30782E2816D1F1
:1047300016F8010F44F004042A280DD06FF02F0260
:104740003078A0F13003092B09D807EB870302EB7F
:104750004303C718761CF3E758F8047B761C3078BF
:104760006C280FD006DC4C2817D068280DD06A289A
:1047700014D104E0742810D07A280FD10DE044F44D
:1047800000140AE044F4801401E044F44014727808
:10479000824202D104F58014761C761C307866289B
:1047A0000BD013DC582877D009DC002875D04528B9
:1047B000F6D04628F4D047281AD193E118E06328B0
:1047C00035D0642879D0652812D18BE1702873D058
:1047D00008DC6728F1D069286FD06E280DD06F28CB
:1047E00006D1ACE073282CD0752874D0782853D02B
:1047F0005246179990476D1C54E1C4F302500228A9
:1048000009D003280DD0D8F8001004280DD00D6071
:1048100008F1040846E1D8F80010EA17C1E900528F
:10482000F6E7D8F800100D80F2E70D70F0E718F801
:10483000041B8DF8001000208DF80100EB460120CC
:1048400003E058F804BB4FF0FF3061074FF0000160
:1048500002D40DE009F101018946B9420FDA814520
:10486000F8DB1BF809100029F4D108E009F1010177
:1048700089468142FADB1BF809100029F6D103981A
:104880005346A0EB090721463846179A00F080FAF4
:10489000284400EB090507E044E008E10DE01BF8BF
:1048A000010B524617999047B9F10109F7D25346C7
:1048B00021463846179AF2E039E00A21C4F3025241
:1048C0004FF0000B0091022A06D058F8040BC117D4
:1048D000032A09D00AE023E008F1070020F00702CC
:1048E000F2E80201904605E000B2C117042A01D1A6
:1048F00040B2C117002906DA0A460021404261EBA6
:1049000002012D2202E0220504D52B228DF804207D
:10491000012203E0E20701D02022F7E7914657E0A9
:104920000A2100E010214FF0000B00910BE0102154
:104930004FF0000B44F004040827009103E0082026
:104940004FF0000B0090C4F30252022A05D058F831
:10495000040B0021032A08D008E008F1070020F02A
:104960000702F2E80201904603E080B2042A00D177
:10497000C0B24FF0000922072AD53278702A07D03A
:10498000DDF800C08CF0100C5CEA0B0C05D00EE0DA
:1049900040228DF80420012208E050EA010306D0ED
:1049A00030238DF804308DF8052002229146009BBB
:1049B00083F0080353EA0B030AD150EA010201D144
:1049C000620705D530228DF804204FF001097F1EC3
:1049D0003278582A04D039A20C920CAA02920BE029
:1049E0003BA2F9E75B46009AFBF7ECFB0C9B9B5C58
:1049F000029A521E0292137050EA0102F2D10298FA
:104A000004A9081A00F1200B600702D524F48034B1
:104A100000E001275F4502DDA7EB0B0000E000206E
:104A200000EB0B01009003984944401A0390E00307
:104A300006D453462146179A039800F0A9F9054475
:104A4000002706E001A85246C05D179990476D1CEB
:104A50007F1C4F45F6DBE0030CD553462146179AE1
:104A6000039800F095F9054404E030205246179968
:104A700090476D1C0099481E00900029F5DC08E065
:104A80000298029952460078491C02911799904762
:104A90006D1CBBF10001ABF1010BF1DC5BE100F03F
:104AA00065F90544761C307800287FF40DAE19B006
:104AB0002846BDE8F08F000009280100303132336C
:104AC000343536373839616263646566000000004A
:104AD0003031323334353637383941424344454634
:104AE00000000000600700D4062708F1070020F04E
:104AF0000700F0E80223804603F0004C5FEA0C0058
:104B000001D097A009E0200501D596A005E0E007B7
:104B100001D095A001E0AFF24C001390307823F063
:104B2000004365280CD006DC452809D046281DD056
:104B300047287FD13BE0662818D067287AD136E035
:104B40000021112F01DB112000E0781CCDE90001CC
:104B500004A90CA8FFF7EEFCDDE90D010C9A4FF05B
:104B6000000B07F10109109200914EE04FF0004058
:104B70000097CDE9011004A90CA8FFF7DBFCDDE9E3
:104B80000D020C9B0F994FF0000B91461093009271
:104B900011B9791C00EB0109B7EB090003D4C0F18E
:104BA000FF3B07F10109A9EB0700019042E0012F4B
:104BB00000DA01270021112F01DD112000E0384625
:104BC000CDE9000104A90CA8FFF7B4FCDDE90D0153
:104BD0000C9A00914FF0000BB946109221070FD4A8
:104BE000009A4A4503DA914601E0A9F10109B9F1B9
:104BF000010F05DD109AA9F10101515C3029F4D0B3
:104C0000B84202DA10F1040F03DA0121CDE90110F4
:104C100010E0002803DC8344A9EB000102E0411C02
:104C2000494500DD8946A0EB0B00401C01904FF088
:104C300000400290200705D40198484502DB4FF060
:104C4000FF30019000208DF84B0002980DF14B07CA
:104C5000B0F1004F25D002200C902B200D9002982F
:104C600000280CDA404202902D200D9007E00A2126
:104C70000298FBF703FD3031029007F8011D0C99F3
:104C8000481E0C900029F2DC02980028EFD1791E12
:104C90000D980870307800F0200040F0450007F8CB
:104CA000020D11A8C01BC01D02901398007800B11E
:104CB000012000EB0901019801EBE0710298014429
:104CC0000398401A401E0390E00306D45346214641
:104CD000179A039800F05CF805441398007818B10F
:104CE0005246179990476D1CE00323D55346214641
:104CF000179A039800F04CF805441BE0BBF1000F35
:104D000007DB0098584504DD1098179910F80B0040
:104D100001E0179930205246904701980BF1010BA2
:104D2000401E05F10105019004D12E20524617992D
:104D300090476D1CB9F10001A9F10109DEDC05E025
:104D400017F8010B5246179990476D1C0299481E9F
:104D500002900029F4DC53462146179A03989EE6F8
:104D60002D0000002B000000200000002DE9F04184
:104D7000044600251E461746880404D405E039463B
:104D80002020B0476D1C641EF9D52846BDE8F0818F
:104D90002DE9F041044600251E469046C80301D582
:104DA000302700E02027880404D505E04146384636
:104DB000B0476D1C641EF9D52846BDE8F0810A682D
:104DC000531C0B6010707047F8B504464E48FBF753
:104DD0005AFA0346D0F1140174D04B4A0025D0187A
:104DE00010F8010C30280BD1204600F02CFB38B90C
:104DF000454800E0401C0678002EFBD100F8015C1D
:104E0000732C1CD0632C1ED0742C20D06E2C22D07E
:104E1000672C24D0282C26D0292C2CD02E2C2FD017
:104E20002B2C32D02D2C35D02A2C39D02F2C3CD005
:104E30005E2C3FD0107890B32D2846D04AE004294C
:104E40005ADB32A010E0042956DB31A00CE0042923
:104E500052DB30A008E003294EDB2FA004E0032939
:104E60004ADB2EA000E02EA000F06AF8012843D013
:104E7000022845D037E000F091F9E0B329A11DE008
:104E800000F08CF9B8B328A118E000F087F990B3CE
:104E900026A113E000F082F968B325A10EE012E02C
:104EA00000F07CF938B323A108E000F077F910B3E3
:104EB00021A103E000F072F9E8B120A11248FBF74C
:104EC000D6F910E018E014700DE05078302801D1C8
:104ED000022B0CD0CDF800508DF80040012269461D
:104EE0000948FBF7D7F9BDE8F84000F08FBB009503
:104EF00000F046F8F0E703E0BDE8F84000F05ABBE8
:104F0000BDE8F84000F044BA2001002073696E004B
:104F1000636F730074616E006C6E00006C6700005C
:104F200028000000290000002E0000002B000000D7
:104F30002D0000002A0000002F0000005E0000008D
:104F400010B504460C48FBF79EF90B49084410F8CD
:104F5000010CA0F13001092904D808A10648FBF78B
:104F600086F901E02E2805D021460348FBF77FF99A
:104F7000002010BD022010BD200100202A000000EA
:104F800010B51A4C607838B32046FBF77CF921182D
:104F9000002011F8012C6E2A05D0732A0ED0672A42
:104FA00007D0214612E011F8022C692A06D0612AA6
:104FB00004D001F8010C01F8020C10E001F8010C1A
:104FC00001F8020C01F8030C09E0491C0A78002AD8
:104FD000FBD101F8010C02E005A0008820802078B8
:104FE000002801D13020207010BD000020010020D9
:104FF000300000002DE9F0478A462DED028BA6B067
:10500000044650216846FBF727F9282119A8FBF729
:1050100023F900252E469FED598BA0468DED148B6C
:10502000207C6F46012805D120682D2804D18DED04
:10503000008B0125207C90B3206800F0CFFA02009D
:10504000504819A957D05EB301EB860050F8042CE4
:10505000104600F0C3FAA8B3104600F0BFFA0246AB
:10506000206800F0BBFA824240DB681EAD1E07EBF1
:10507000C50907EBC00099ED001B90ED000B761EF3
:105080008DED141B51F8260014A900F0F9F8002842
:1050900061D09DED140B89ED000B6D1CCAE700E09B
:1050A00007E094ED020B07EBC500183480ED000B10
:1050B000F3E721683D2953D0292904D0012618346B
:1050C0001991B7E704E00168491E01603DD447E04B
:1050D0006D1E07EBC509761E99ED000B8DED140BC7
:1050E00051F8260014A900F0DBFAD0E754F8180BA9
:1050F00041F8260007E08DED248B2268282A04D091
:1051000041F826201834761C94E71F4B01682822AA
:105110005A54491C016024A904F11800FFF76AFFE2
:10512000002818D09DED240B07EBC50100EB4000D3
:1051300004EBC00481ED000B94F8280018346D1CBA
:105140000128ABD12068401CA8D10F480FA10A301C
:10515000FBF7B4F8002026B0BDEC028BBDE8F08769
:1051600007EBC500182110ED020BA4EB080090FB23
:10517000F1F08AED000B401CEDE70000000000009C
:1051800000000000040000207C0100204572726FC6
:105190007220427261636B657400000010B50748AD
:1051A000FBF771F80549084410F8010C303809285C
:1051B00001D8012010BD002010BD000020010020FA
:1051C00010B500F011F9BDE8104000F001B8000082
:1051D00001A0FCF7EBBC000074312E7478743D2202
:1051E0003022FFFFFF00000010B50A4607E000BFB5
:1051F00010F8014B491CA34201D0002010BD0B78D0
:10520000002BF5D1881A10BD30B52DED028B93B06F
:105210000546B0EE408AF0EE608A002453EC182B6D
:1052200014A102A8FCF7D2FC02A8FBF72CF802A9F3
:105230000A1812F8012C302A09D053EC182B0DA1B2
:105240002846FCF7C3FC13B0BDEC028B30BD401EFA
:1052500004E00A5C302A03D1401E641C0028F8DCFC
:105260008DED008BC4F1060203A12846FCF7AEFCCD
:10527000E9E70000256C6600252E2A6C6600000018
:1052800010B50C462DED068BB0EE408AF0EE608A2C
:105290002D2817D004DC2A281DD02B2865D108E042
:1052A0009FED339B9FED34AB2F281DD05E285CD142
:1052B00051E094ED000B53EC182B51EC100BFBF765
:1052C00006F83DE094ED000B53EC182B51EC100B5D
:1052D000FBF79EF834E094ED000B53EC182B51ECE7
:1052E000100BFBF79BF82BE0B0EE491AF0EE691AB1
:1052F000B0EE4A0AF0EE6A0AFDF74EFC53EC182BAA
:1053000051EC100BFBF78AF912D3B0EE491AF0EE0C
:10531000691AB0EE4A0AF0EE6A0AFDF73DFC51EC5C
:10532000100B81F0004153EC182BFBF78FF90AD2D8
:1053300094ED000B53EC182B51EC100BFBF7E0F83D
:10534000C4E9000111E00EA11048FAF7B7FF0020F0
:10535000BDEC068B10BD94ED000BB0EE481AF0EEDC
:10536000681AFDF719FC84ED000B0120F0E700003E
:1053700000000000000020409A9999999999B93F3E
:105380004572726F7220312F3000000086010020BC
:1053900010B500F029F8BDE8104001A0FCF706BCEC
:1053A00074312E7478743D224572726F7220496E8A
:1053B00070757422FFFFFF0082B0CDE9000121F07B
:1053C000004001909DED000B02B051EC100B7047B6
:1053D00013B54FF6FF73012269460248FCF772F9D4
:1053E00000981CBD380100200449302008700120BD
:1053F00000220A54401C1428FBDB704720010020C7
:10540000F8B500250E460446009509E021461834FB
:1054100070196A4600F0D2FA002813D000980544AB
:10542000705D0028F2D154F8181C01203D2904D0E9
:105430003D2144F8101B04F8080B4FF0FF312160A8
:1054400020740120F8BD2E280DD006DC2A280AD0B1
:105450002B2808D02D2804D105E02F2803D05E2862
:1054600001D0002070470120704710B541EC100BAF
:10547000FDF716F951EC100B10BD0000FBF7C0FB57
:10548000FCF7CEF9FCF77AF9FCF7A6F9094C0122F2
:1054900040212046FBF7A0FB012280212046FBF79C
:1054A0009BFBFFF7A1FF012203490448FCF79EF88C
:1054B000FEE700000000024001000020380100204B
:1054C00010B50078012836D0022836D0032836D00F
:1054D000042836D0052836D0062837D0072837D0FC
:1054E000082837D0092837D078B30B2838D00C28B3
:1054F00038D00D2838D00E2838D00F2838D01028B2
:1055000038D0112838D0122838D0132838D0142891
:1055100038D0152838D0162838D0172838D01F286A
:105520003BD020283DD021283ED0632840D1BDE883
:10553000104000F06BB831202BE0322029E03320FE
:1055400027E0342025E0352023E007E0362020E066
:1055500037201EE038201CE039201AE0302018E007
:105560002E2016E02B2014E02D2012E02A2010E03F
:105570002F200EE028200CE029200AE05E2008E021
:10558000732006E0632004E0742002E06E2000E057
:105590006720BDE81040FFF717BCBDE8104000F0E1
:1055A00043B8FFF7EDFCC2E7BDE81040FFF708BEC7
:1055B00010BD000010B5FFF717FFBDE8104001A0B7
:1055C000FCF7F4BA74312E7478743D224572726F10
:1055D0007220436F756E7422FFFFFF002D280FD0DD
:1055E00006DC29280CD02A280CD02B2806D107E06D
:1055F0002F2807D03D2803D05E2805D00020704713
:10560000012070470220704703207047014902A023
:10561000FCF7CCBA2001002074312E7478743D223E
:10562000257322FFFFFF000010B586B01448FAF77B
:105630002AFE1349084410F8010CA0F130010A2990
:1056400008D3292806D00FA0FCF7B0FAFFF7CCFE4C
:1056500006B010BD114C002280212046FBF7BCFA99
:1056600007496846FAF72AFE684600F031F9FFF765
:10567000BBFE012280212046FBF7AEFAE8E70000DE
:105680002001002074312E7478743D22496E7075AB
:1056900074204572726F7222FFFFFF00000002400B
:1056A00010B50C462DED028B742820D00ADC63283F
:1056B00018D09FED4E0B67287FD06E286BD07328D3
:1056C00078D10AE09FED4B0B9FED4C8BC4282CD07A
:1056D000D42811D0D5287FD140E094ED000BFEF7FF
:1056E00083F877E094ED000BFCF776FF72E094ED21
:1056F000000BFEF7DDF86DE094ED001B53EC102B72
:1057000051EC110BFAF78AFF08D394ED000B53EC20
:10571000182B51EC100BFAF799FF01D239A160E078
:1057200094ED000BFCF73CFC54E094ED001B53ECB3
:10573000102B51EC110BFAF771FF08D394ED000B0D
:1057400053EC182B51EC100BFAF780FF01D231A16A
:1057500047E094ED000BFCF777FA3BE094ED000B8B
:105760009FED301B51EC100B53EC112BFAF76EFF31
:105770000FD294ED000B9FED2D1B51EC100B53EC51
:10578000112BFAF74BFF04D294ED000BFCF7B8FD98
:1057900020E028A125E094ED001B53EC102B51ECE8
:1057A000110BFAF753FF06D294ED000BFCF778FFCC
:1057B00010E002E010E023A113E094ED001B53EC95
:1057C000102B51EC110BFAF741FF09D294ED000BAD
:1057D000FDF74AF984ED000B0120BDEC028B10BDF2
:1057E0001BA11E48FAF76AFD0020F6E70000000042
:1057F00000000000000000000000F0BF00000000FA
:105800000000F03F4265796F6E64206173696E2815
:10581000290000004265796F6E642061636F732810
:105820002900000050455254FB21F9BF5045525405
:10583000FB21F93F4265796F6E64206174616E28C7
:10584000290000004265796F6E64206C6E28290083
:105850004265796F6E64206C6728290086010020FC
:1058600000B52DED048B83B041EC190BFAF7ECFF7A
:1058700041EC180B18EE100A18EE901A8DED008B03
:10588000002818BF0120084320F00040C0F17F60CD
:1058900000F1E040C00F14D019EE101A19EE900A72
:1058A0008DED009B002918BF0121084320F0004026
:1058B000C0F17F6000F1E040C00F04BF0120FEF79F
:1058C00033FE51EC180B03B0BDEC048B00BD00009F
:1058D00030B51F49ADF5057D00258D72014678A8CC
:1058E000FAF7ECFC4FF4F0716846FAF7B5FC9FED5F
:1058F000190B1A4C8DED820B78A968462560FFF7CD
:105900007FFD60B182A96846FFF774FB10490A3138
:10591000B0B1206828B112A0FCF748F90CE017A03C
:10592000FAE7087870B97DA89DED820BFFF76CFC53
:105930007DA918A0FCF73AF90DF5057D002030BDD2
:10594000087810B102490A31F3E716A0E4E7000035
:105950007C01002000000000000000000400002086
:1059600074312E7478743D224572726F72204272C7
:1059700061636B657422FFFFFF00000074312E74B9
:1059800078743D22496E707574204572726F722270
:10599000FFFFFF0074312E7478743D22257322FFBF
:1059A000FFFF000074312E7478743D224572726FCF
:1059B00072204E554C4C22FFFFFF000070B50C4684
:1059C00001780023A1F13005092D06D82374114672
:1059D00000F036F884ED020B0CE001250226652963
:1059E0000AD0702913D02574114600F099F8206070
:1059F000002800D0012070BD9FED0D0B237484EDB5
:105A0000020B156040782028F4D11660F2E7417847
:105A1000692901D0002070BD9FED070B237484ED30
:105A2000020B166080782028E4D103201060E1E7A3
:105A30000357148B0ABF05401E264454FB2109401E
:105A40002DE9F04100272DED048B884605460126FF
:105A50009FED2B8B3C4628E03FB33046FAF7BFFD65
:105A600041EC110B9FED280BFDF796F8285DB0EE89
:105A7000409AF0EE609A3038641CFAF7B0FD53ECAF
:105A8000192BFAF7CBFC53EC182BFAF720FC41EC5E
:105A9000180B761C285DA0F130010929DCD92E28CD
:105AA000DAD0C0B2202820D020E0285D2E2819D0DE
:105AB000641CFAF7A5FD9FED160B41EC190B53EC96
:105AC000102B51EC180BFAF7A9FC53EC192BFAF731
:105AD000FEFB9FED111B53EC112BFAF799FC41ECE7
